:020000040800F2
:10000000700C002089010008071C00089B160008DE
:10001000051C0008CD020008312700080000000080
:100020000000000000000000000000008520000823
:10003000DD020008000000000D2000086D2200080D
:10004000A3010008A3010008A3010008A301000800
:10005000A3010008A3010008A3010008A3010008F0
:10006000A3010008A3010008A3010008A3010008E0
:10007000A3010008A3010008D1020008A3010008A1
:10008000A3010008A3010008A3010008A3010008C0
:10009000A3010008A3010008A3010008A3010008B0
:1000A000A3010008A3010008A3010008A3010008A0
:1000B000A3010008A3010008A3010008A301000890
:1000C000A3010008A3010008A3010008A301000880
:1000D000A301000825270008A3010008A3010008C8
:1000E000A3010008A3010008A301000800F002F822
:1000F00000F03AF80AA090E8000C82448344AAF188
:100100000107DA4501D100F02FF8AFF2090EBAE885
:100110000F0013F0010F18BFFB1A43F0010318473B
:10012000B43A0000D43A0000103A24BF78C878C12D
:10013000FAD8520724BF30C830C144BF04680C60ED
:10014000704700000023002400250026103A28BF35
:1001500078C1FBD8520728BF30C148BF0B60704739
:100160001FB51FBD10B510BD00F05CF81146FFF7BC
:10017000F7FF02F0EFFA00F07AF803B4FFF7F2FFAE
:1001800003BC00F07DF8000009488047094800479B
:10019000FEE7FEE7FEE7FEE7FEE7FEE7FEE7FEE737
:1001A000FEE7FEE704480549054A064B7047000094
:1001B000CF220008ED00000870060020700C00201F
:1001C00070080020700800204FF0000200B51346B0
:1001D00094469646203922BFA0E80C50A0E80C5067
:1001E000B1F12001BFF4F7AF090728BFA0E80C5018
:1001F00048BF0CC05DF804EB890028BF40F8042B11
:1002000008BF704748BF20F8022B11F0804F18BF7D
:1002100000F8012B704770477047704700487047DF
:100220000C0600207546FFF7F9FFAE46050069464B
:10023000534620F00700854618B020B5FFF7B2FFFF
:10024000BDE820404FF000064FF000074FF00008D7
:100250004FF0000B21F00701AC46ACE8C009ACE858
:10026000C009ACE8C009ACE8C0098D46704710B5BC
:100270000446AFF300802046BDE81040FFF77DBF85
:1002800001491820ABBEFEE72600020070470000BF
:1002900010B5094C01229103204600F070FA0122AA
:1002A0002021204600F06BFA0022E1142046BDE830
:1002B000104000F064BA0000000C014001229103DC
:1002C000014800F05CBA0000000C0140FEE70000AD
:1002D000014800F075B8000080010020704772B638
:1002E000FEE710B590F821100022022905D0042164
:1002F000816380F82020012010BD01680B6823F085
:100300000E030B6001680B6823F001030B6090F88B
:100310004030C46B012101FA03F3636080F82110BF
:1003200080F82020104610BD10B590F82110002450
:10033000022903D00421816301243DE001680A6899
:1003400022F00E020A6001680A6822F001020A60C7
:100350001A4A0168914201D1012121E0174A143261
:10036000914201D110211BE0144A2832914201D15F
:10037000891515E0114A3C32914201D189140FE0F0
:100380000E4A5032914202D14FF4803108E00B4ABC
:100390006432914202D14FF4801101E04FF080713C
:1003A000064A083A5160012180F82110002180F8A6
:1003B0002010416B01B18847204610BD0800024063
:1003C0002DE9F05FC16B0C6801680B68D0F840C084
:1003D000042202FA0CF2494DDFF824A1494E4A4F9B
:1003E000DFF828B1DFF828E122422CD05A072AD5BD
:1003F0000A68920603D40A6822F004020A600168BF
:10040000A94201D1042219E0514501D1402215E051
:10041000B14202D14FF4806210E0B94202D14FF4F0
:1004200080420BE0594502D14FF4802206E071452D
:1004300002D14FF4800201E04FF080622F49083969
:100440004A60C16A3BE04FF0020808FA0CF818EA6B
:10045000040F4FF000094FF0010235D05FEA8378B6
:1004600032D50B689B0605D40B6823F00A030B609A
:1004700080F821200168A94201D1022219E05145EA
:1004800001D1202215E0B14202D14FF4007210E0F8
:10049000B94202D14FF400520BE0594502D14FF45A
:1004A000003206E0714502D14FF4001201E04FF036
:1004B0000072124908394A6080F82090816A002948
:1004C0001AD0BDE8F05F0847082505FA0CF525426B
:1004D00012D01B0710D50B6823F00E030B6090F8A9
:1004E0004010C36B02FA01F15960826380F8212049
:1004F00080F82090016BE2E7BDE8F09F0800024021
:100500001C000240300002404400024058000240FB
:100510006C00024030B528B308C8134914221944AE
:10052000B1FBF2F18900C163104981630221417777
:100530001A6843F6F0718A43D0E900142143D0E9E8
:1005400002452C43214304692143446921438469C2
:100550002143114319600021416301224277017751
:10056000084630BD012030BDF8FFFDBF000002404D
:1005700070B5044600F008F90546601C02D0044836
:100580000078044400F000F9401BA042FAD370BD8B
:100590004C0000202DE9F84FDFF8B8910024A9F1B4
:1005A000040B23460F2709F1040AABF1040EC9E03E
:1005B0000125A5402A40AA427DD1674ED1F804C04A
:1005C000ACEB0608B44532D014DCBCF1030F3AD0D2
:1005D00009DCBCF1000F2AD0BCF1010F1CD0BCF12A
:1005E000020F31D11DE0BCF1110F17D0BCF1120F79
:1005F0002AD119E0B8F5881F19D006DCB8F5803F7C
:1006000015D0B8F5801F1FD111E0B8F5001F0ED02E
:10061000B8F5041F18D10AE0CB6815E0CB681B1DA4
:1006200012E0CB6808330FE0CB680C330CE08B682A
:100630002BB1012B4FF0080303D0456104E00423E4
:1006400002E0056100E00023FF2A01D8064601E030
:1006500000F104064FEA840501D9A5F12005D6F87A
:10066000008007FA05FC28EA0C0803FA05F548EAB9
:100670000508C6F800804D68ED0062D5374DAE69BB
:1006800046F00106AE61AD6924F0030605F00105F0
:100690000095334D06EB050CDCF80850A607360F25
:1006A00007FA06F825EA0805DFF8B880404503D1C7
:1006B0004FF0000817E044E0DFF8AC80404502D17D
:1006C0004FF001080FE0DFF8A480404502D14FF061
:1006D000020808E0DFF89880404502D14FF0030897
:1006E00001E04FF0040808FA06F848EA0508CCF8DB
:1006F00008804D68D9F80060ED024D4601D51643DB
:1007000000E096432E604D68DAF80060AD02554671
:1007100001D5164300E096432E604D68DBF800607B
:10072000AD035D4601D5164300E096432E604D684B
:10073000DEF80060ED03754601D5164300E09643F0
:100740002E60641C0D682A46E5407FF431AFBDE899
:10075000F88F000008040140000011100010024052
:100760000000014000080140000C01400010014061
:10077000001401408068084000D0012070470AB191
:10078000016170470904FBE7014880687047000079
:100790004C00002002488168027811448160704753
:1007A0004C000020074810B5016841F010010160BD
:1007B000032000F075F80F2000F006F800F024F890
:1007C000002010BD0020024070B50D4D04464FF4CE
:1007D0007A712878B1FBF0F00A490968B1FBF0F0B2
:1007E00000F0DCFA48B9102C07D200222146501E36
:1007F00000F036F800206C6070BD012070BD000074
:100800004C000020580000200C4808B5816941F0D8
:1008100001018161816901F001010091C16941F02B
:100820008051C161C06900F0805000900448416867
:1008300021F0E06141F00071416008BD001002400C
:1008400000000140002809DB00F01F020121914057
:100850004009800000F1E020C0F80011704700005E
:10086000F0B40E4B1B680C46C3F30223C3F107051B
:10087000042D00D90425191D072901D2002300E009
:10088000DB1E012606FA05F1491E214099409E40D3
:10089000761E16403143F0BC01F04BBF0CED00E07A
:1008A000064900F0070208684FF6FF03184040EAC7
:1008B0000220034A10430860704700000CED00E07E
:1008C0000000FA052DE9F0470F46050061D0434EC0
:1008D000306800F00700B84209D2306820F0070005
:1008E00038433060306800F00700B84251D12868C2
:1008F0003B4C810712D5400703D5606840F4E060A7
:1009000060602878000703D5606840F4605060603C
:100910006068A96820F0F000084360602878C0078C
:1009200028D06868012810D02168022810D08907D3
:1009300000292EDA616821F0030101436160FFF7AD
:1009400023FF804641F288390DE021688903EFE7F3
:100950008901EDE7FFF718FFA0EB0801494502D92F
:100960000320BDE8F0876068696800F00C00B0EB18
:10097000810FEFD1306800F00700B8420BD9306822
:1009800020F0070038433060306800F00700B842BC
:1009900001D00120E5E72878400705D56068E968BF
:1009A00020F4E060084360602878000706D560689E
:1009B000296920F4605040EAC100606000F038F816
:1009C0006168084AC1F30311515CC84006490860D8
:1009D00006480068FFF7F8FE0020C2E7002002404A
:1009E00000100240BC3300085800002050000020D6
:1009F0000448054900684968044AC1F30221515C72
:100A0000C84070475800002000100240CC33000856
:100A10000448054900684968044AC1F3C221515C91
:100A2000C84070475800002000100240CC33000836
:100A30000E4A51680E4801F00C03042B11D0082B0C
:100A40000FD10C48C1F38343C903C05C0AD5516878
:100A5000084AC1F34041921E515C054A5043B0FB25
:100A6000F1F070470449484370470000001002400D
:100A700000127A00AC33000800093D002DE9F84F60
:100A8000040070D02078C04DC00749D06868C0F31A
:100A90008100012807D06868C0F38100022809D1CD
:100AA0006868C00306D52868800339D560680028C7
:100AB000E7D035E06068B0F5803F0BD010B1B0F5FD
:100AC000A02F11D0286820F480302860286820F4F6
:100AD000802002E0286840F480302860606890B18F
:100AE000FFF752FE06460AE0286840F4802028609E
:100AF000F0E700BFFFF748FE801B642873D8286822
:100B00008003F7D50CE0FFF73FFE064605E000BF87
:100B1000FFF73AFE801B6428F0D828688003F7D4DA
:100B200020789A4E80074FF001094FF0000839D520
:100B3000686810F00C0F07D06868C0F381000228C5
:100B400009D16868C00306D42868800714D52069D5
:100B5000012808D110E02069B0B1C6F80090FFF775
:100B600013FE074605E00AE1FFF70EFEC01B022850
:100B7000C4D828688007F7D52868616920F0F80094
:100B800040EAC10028600DE0C6F80080FFF7FCFDD8
:100B9000074604E0FFF7F8FDC01B022823D82868A9
:100BA0008007F7D4207800072CD57948A169D9B1FE
:100BB000C0F80090FFF7E8FD074604E0FFF7E4FD0A
:100BC000C01B02280FD8686A8007F7D571484FF418
:100BD000FA510068B0FBF1F0009000BF0098411E90
:100BE0000091FAD20EE080E0C0F80080FFF7CCFD63
:100BF000074604E0FFF7C8FDC01B022875D8686AE5
:100C00008007F7D42078400760D5E8690027C00046
:100C100008D4E86940F08050E861E869012700F0F5
:100C2000805000905C480168C90513D40168834670
:100C300041F480710160FFF7A7FD824606E000BF26
:100C4000FFF7A2FDA0EB0A0064284ED8DBF80000F5
:100C5000C005F5D5E06801280AD008B1052813D0F1
:100C6000286A20F001002862286A20F0040002E0CF
:100C7000286A40F001002862E06841F2883B98B1A0
:100C8000FFF782FD82460BE0286A40F004002862EC
:100C9000EEE700BFFFF778FDA0EB0A0159455AD8EF
:100CA000286A8007F6D50CE0FFF76EFD824605E066
:100CB000FFF76AFDA0EB0A0159454CD8286A800766
:100CC000F6D41FB1E86920F08050E861E06988B38C
:100CD0006968C1F38101022944D00228C6F8608006
:100CE00004D0FFF751FD044638E034E0FFF74CFD37
:100CF000074604E0FFF748FDC01B02282BD82868F0
:100D00008001F7D4206AB0F5803F05D16868A168FA
:100D100020F4003008436860D4E90801084369689A
:100D200021F4741108436860C6F86090FFF72CFD49
:100D3000044606E025E000BFFFF726FD001B022861
:100D400009D828688001F7D51BE000BFFFF71CFD1C
:100D5000001B022802D90320BDE8F88F2868800113
:100D6000F4D40EE00128F7D06868226A00F48031DC
:100D7000914204D1616A00F47010884201D00120D0
:100D8000EAE70020E8E700000010024000004242CD
:100D900080044242580000200070004010B5401E00
:100DA000B0F1807F01D3012010BD4FF0E0246061DD
:100DB0000F21601701F0BDFC0020A0610720206119
:100DC000002010BD10B590F83C20012A22D001224D
:100DD00080F83C20CA688C6822F4407222434C6838
:100DE00022F4806222430C6822F4006222430C69E0
:100DF00022F4805222434C6922F400522243C969F2
:100E0000002322F480420A4301684A6480F83C309F
:100E1000002010BD022010BD70B590F83C20012AC2
:100E200026D0012480F83C40022280F83D2003684F
:100E30005A689D6822F070060A6832435A600D4B6A
:100E400002689A4208D0B2F1804F05D00A4B9A420C
:100E500002D00A4B9A4204D1496825F08003194315
:100E6000916080F83D40002180F83C10084670BD3C
:100E7000022070BD002C014000040040000800402A
:100E800010B5040003D094F83D0010B107E0012034
:100E900010BD002084F83C00204600F01FF802201E
:100EA00084F83D00211D206801F012FA012084F829
:100EB000460084F83E0084F83F0084F8400084F83F
:100EC000410084F8420084F8430084F8440084F828
:100ED000450084F83D00002010BD000038B50546EF
:100EE0000068244A2449904207D1886940F4006090
:100EF0008861886900F4006014E0B0F1804F0AD086
:100F00001E4A904210D1C86940F00200C861C86909
:100F100000F0020006E0C86940F00100C861C8693D
:100F200000F00100009038BD154A9042FBD1C8691D
:100F300040F00400C861C869134C00F00400009040
:100F400010482060102060604020A0608020E06099
:100F500040002061800060610020A0615014E061C9
:100F60002046FFF7D7FA08B1FFF7B9F9AC6265621E
:100F700038BD0000002C0140001002400004004079
:100F800000080040440002408001002070B5044683
:100F900090F83C000025012817D0012684F83C6019
:100FA000022084F83D002068826822F0770222F453
:100FB0007F4282600868502838D00DDC20284FD04E
:100FC00005DC90B3102811D14AE0022070BD302812
:100FD00046D040280AD13BE060282FD070280DD0A1
:100FE000B0F5805F03D0B0F5005F12D0012584F822
:100FF0003D60002084F83C00284670BDCB68D1E9F4
:101000000121206801F0ADF92068816841F0770185
:1010100009E0CB68D1E90121206801F0A2F920683C
:10102000816841F480418160E1E719E0CA6849685C
:10103000206801F04BFA5021206806E0CA68496830
:10104000206801F054FA6021206801F094F9CEE79D
:10105000CA684968206801F039FA40212068F4E73D
:10106000226801461046F0E730B585B000210091B6
:1010700001910291039100682A4B2B4902242B4ACB
:10108000984209D1886940F004008861886900F0BD
:1010900004000490881529E0B0F1804F1DD0244B46
:1010A000244D98422CD1886940F0040088618869F9
:1010B00000F004000490886940F0080088618869A5
:1010C000694600F008000490C020CDE900041046F5
:1010D0000394FFF75FFA03201EE0886940F00400E4
:1010E0008861886900F0040004900F20CDE90004B5
:1010F00069461046CDF80C40FFF74CFA05B030BDFC
:101100000D4A9042FAD1886940F0080088618869E8
:1011100000F0080004908020CDE9000469462846CC
:101120000394E9E7002C0140001002400008014050
:1011300000040040000C01400008004070B5044667
:1011400090F83C0000260D4601280FD0012084F8BD
:101150003C006AB1042A1DD0082A2FD00C2A3FD0A7
:101160000126002084F83C00304670BD022070BD8E
:10117000206801F009F92068816941F00801816166
:101180002068816921F004018161206881692A69F0
:10119000114311E0206801F01FF92068816941F4D2
:1011A000006181612068816921F48061816120682A
:1011B00081692A6941EA02218161D2E7206801F050
:1011C00037F92068C16941F00801C1612068C1692F
:1011D00021F00401C1612068C1692A69114311E04D
:1011E000206801F051F92068C16941F40061C161D2
:1011F0002068C16921F48061C1612068C1692A69E0
:1012000041EA0221C161ACE710B5040003D094F8B3
:101210003D0010B107E0012010BD002084F83C0023
:10122000204600F01EF8022084F83D00211D2068B1
:1012300001F04EF8012084F8460084F83E0084F85E
:101240003F0084F8400084F8410084F8420084F8AC
:10125000430084F8440084F8450084F83D000020F1
:1012600010BD704710B50446022249B104290ED0C2
:10127000082913D094F84100012816D0012010BD90
:1012800094F83E000128F9D184F83E200FE094F84C
:101290003F000128F2D184F83F2008E094F8400094
:1012A0000128EBD184F8402001E084F8412001229C
:1012B000206801F049F80F492068884203D1426C48
:1012C00042F4004242642068884208D0B0F1804F66
:1012D00005D00949884202D00849884204D1816872
:1012E00001F00701062903D0016841F00101016006
:1012F000002010BD002C0140000400400008004008
:1013000070477047F8B5016804460868CA684B69B9
:1013100010F00F0F4FF0000559D003F0010602F452
:101320009077374365D0C10705D0D10503D5616CEF
:1013300041F001016164410705D5D90703D0616C13
:1013400041F002016164810705D5D90703D0616CC2
:1013500041F004016164010707D502F02001314327
:1013600003D0616C41F008016164616C00293AD0DE
:10137000800604D5900602D5204601F0F9F82068D1
:101380004069616CC0F38010090700D460B3204647
:1013900001F0C7F820684069400621D52068143064
:1013A00050E8001F21F0400140E80012002AF5D16A
:1013B000E06BA8B16D494163E06BFEF7B5FF002813
:1013C00011D0E06B416B01B0BDE8F04008478306E7
:1013D0000FD593060DD52046BDE8F84001F0C8B8FA
:1013E0002046FFF78EFFF8BD2046FFF78AFF6564B1
:1013F000F8BD266B2023012E7CD1C6067AD5D606F1
:1014000078D508684868009048694FF002064006A1
:1014100040D5E16B086840680004000CE8D0A28D5C
:101420008242E5D9E085886920282DD020680C30DB
:1014300050E8001F21F4807140E80012002AF5D125
:101440002068143050E8001F21F0010140E800122C
:10145000002AF5D12068143050E8001F21F0400127
:1014600040E80012002AF5D184F842302563206854
:101470000C3050E8001F21F0100140E80012002A53
:10148000F5D1E06BFEF72DFF6663A08DE18D401A6C
:1014900081B22AE0A08DE18D401A81B2E08D002852
:1014A000A6D00029A4D022680C3252E8000F20F404
:1014B000907042E80007002FF5D12068143050E802
:1014C000002F22F0010240E80027002FF5D184F818
:1014D0004230256320680C3050E8002F22F01002C3
:1014E00040E80023002BF5D166632046FFF708FF94
:1014F000F8BDFFE705062BD5150629D594F8410060
:101500002128F5D1A068B0F5805F01D12069B0B184
:10151000206A411C2162216800784860E08C401EEE
:101520000004000CE084E3D12068C16821F0800150
:10153000C1602068C16841F04001C160D8E7206AFD
:101540000088C0F308004860206A801C2062E5E73C
:101550004006CDD55006CBD5CA68204622F04002C1
:10156000CA6084F8413000F097F8C1E713250008FD
:1015700070B5040004D094F84100002510B106E0D5
:10158000012070BD84F84050204600F023F824204C
:1015900084F841002068C16821F40051C1602046F0
:1015A00001F048F82068016921F490410161206848
:1015B000416921F02A0141612068C16841F400516C
:1015C000C1606564202084F8410084F842006563AE
:1015D000002070BD30B585B00024009401940294C1
:1015E00003940068194988422DD11948816941F452
:1015F00080418161816901F480410491816941F0F8
:10160000040181618069134D00F0040004904FF4DF
:101610000070009002200190032003906946284644
:10162000FEF7B8FF2815CDE90004012002906946B5
:101630002846FEF7AFFF002211462520FFF710F9DC
:101640002520FFF7FFF805B030BD0000003801404D
:10165000001002400008014090F84230202B01D0D9
:101660000220704721B11AB10023036301F03EB894
:101670000120704700680549884206D104490120CD
:10168000024648700348FFF7E7BF70470038014043
:101690005C000020C40100207047FEE738B500F070
:1016A000B3FA32480021009040238022084600F01F
:1016B00097FB00F0EDFB2F4C2D4860622E49A16294
:1016C000E1622063606A00F0F9FCA06A00F00EFDA0
:1016D000E06A00F023FD206B00F038FD607C401CC8
:1016E0006074607C002840D000206074E17B012998
:1016F00007D0022939D1217C491E2174217C51B1A6
:101700000CE0207C401C2074207C0F2806D30F2086
:101710002074022001E020740120E073207C40004E
:1017200001F088FC6063207C400001F083FCE063F2
:10173000207CB425404205EB400001F063FCA0632F
:10174000207C404205EB400001F05CFC2064606BB3
:1017500000F014FDA06B00F029FDE06B00F03EFDF1
:10176000206CBDE8384000F051BD38BDD4370008CA
:1017700000000743000000200000344270470000D2
:1017800001224FF410410148FEF7F9BF0008014063
:1017900003490120087003490020088070470000B9
:1017A0000E0000201E000020094808B5416941F0E4
:1017B000010141614069002200F0010000901146E2
:1017C0000E20FFF74DF8BDE808400E20FFF73AB8AD
:1017D000001002402DE9F04385B000243B480094FE
:1017E000019402940394816941F01001816181693F
:1017F00001F010010491816941F02001816181694A
:1018000001F020010491816941F004018161816945
:1018100001F004010491816941F00801816180694E
:101820002B4E00F008004FF400550490002229468A
:101830003046FEF7A4FFDFF89C90002244F62031EA
:101840004846FEF79CFFDFF890804FF410470022D7
:1018500039464046FEF793FF0220CDE9024000954D
:101860000125694601953046FEF794FE20208DE85B
:10187000310069464046FEF78DFE44F620000326FF
:10188000CDE90005CDE9024669464846FEF782FEED
:1018900000970396CDE9015469464046FEF77AFE6B
:1018A00028021127CDE90007CDE9024669464846DE
:1018B000FEF770FE6802CDE90007CDE902566946E1
:1018C0004846FEF767FE05B0BDE8F0830010024011
:1018D00000100140000C01400008014010B596B016
:1018E00000240F9410941194129413941C2108A8AE
:1018F0001494FEF769FC20216846FEF765FC284831
:10190000264901604721C0E9011444F61F61C0E97E
:10191000031444618461FFF7B3FA08B1FEF7DFFCFA
:101920004FF480500F900FA91D48FFF72FFB08B10F
:10193000FEF7D5FC1A48FFF767FC08B1FEF7CFFCAD
:10194000139413A916481494FFF766FA08B1FEF72A
:10195000C6FC6020CDE908040A940B940C940D9405
:10196000002208A90E480E94FFF7E8FB08B1FEF725
:10197000B6FC00944FF40050CDE904400294019469
:101980000394694606480794FFF71CFA08B1FEF76E
:10199000A6FC0348FFF768FB16B010BD002C014001
:1019A0006000002010B58EB00024079408940994BC
:1019B0000A940B941C2168460C94FEF705FC2A48F7
:1019C0004FF0804101604721C0E9011444F61F61D6
:1019D000C0E903148461FFF753FA08B1FEF77FFCF6
:1019E0004FF48050079007A91F48FFF7CFFA08B1BE
:1019F000FEF775FC1C48FFF707FC08B1FEF76FFC0B
:101A00000B940BA918480C94FFF706FA08B1FEF7DF
:101A100066FC6020CDE90004029400226946124869
:101A20000494FFF78BFB08B1FEF759FC04226946CA
:101A30000D48FFF783FB08B1FEF751FC0822694609
:101A40000948FFF77BFB08B1FEF749FC0C22694609
:101A50000548FFF773FB08B1FEF741FC0248FFF7AA
:101A600003FB0EB010BD0000A800002010B58EB022
:101A700000240794089409940A940B941C21684646
:101A80000C94FEF7A1FB2A48284901604721C0E9D0
:101A9000011444F61F61C0E903148461FFF7F0F9F3
:101AA00008B1FEF71CFC4FF48050079007A92048AE
:101AB000FFF76CFA08B1FEF712FC1D48FFF7A4FB14
:101AC00008B1FEF70CFC0B940BA919480C94FFF716
:101AD000A3F908B1FEF703FC6020CDE900040294ED
:101AE0000022694612480494FFF728FB08B1FEF76C
:101AF000F6FB042269460E48FFF720FB08B1FEF70B
:101B0000EEFB082269460A48FFF718FB08B1FEF70A
:101B1000E6FB0C2269460648FFF710FB08B1FEF70A
:101B2000DEFB0348FFF7A0FA0EB010BD0004004032
:101B3000F000002010B58EB000240794089409949A
:101B40000A940B941C2168460C94FEF73DFB1E483A
:101B50001C49C0E900144FF6FF71C0E90241802121
:101B600004618161FFF78CF908B1FEF7B8FB4FF40F
:101B70008050079007A91448FFF708FA08B1FEF74C
:101B8000AEFB1148FFF740FB08B1FEF7A8FB0B9432
:101B90000BA90D480C94FFF73FF908B1FEF79FFB26
:101BA0006020CDE9000402940422694606480494AA
:101BB000FFF7C4FA08B1FEF792FB0348FFF754FAA7
:101BC0000EB010BD00080040380100200C4810B5D0
:101BD0000A4901604FF416514160002181600C22D6
:101BE000C160C0E904128161C161FFF7C1FC002836
:101BF00003D0BDE81040FEF772BB10BD00380140B5
:101C0000C4010020FEE7FEE710B50021074C0A469C
:101C1000002004EBC1131A54401CC0B28028FAD330
:101C2000491CC9B20829F3D310BD00000C020020E2
:101C3000F0B57F282AD83F2928D88418802C02D9CB
:101C4000C0F18002D2B2CC18402C02D9C1F14003BD
:101C5000DBB20126DFF838E087180B4414E001F00E
:101C6000070206FA02F5CA0804460EEBC21207E0A4
:101C700012F804C02CEA050C02F804C0641CE4B29B
:101C8000A742F5D8491CC9B28B42E8D8F0BD000084
:101C90000C02002010B500204FF47A720021491C7C
:101CA0009142FCD3401C9042F8D3012000F004F98B
:101CB000BDE81040012000F00BB970B500240646C5
:101CC000802525FA04F0304000D0012000F000F912
:101CD000012000F0F1F8002000F0EEF8641CE4B2FE
:101CE000082CEED3012000F0E7F8BDE8704000209A
:101CF00000F0E2B810B5012000F0EAF8012000F091
:101D0000DBF8002000F0E4F8BDE81040002000F00F
:101D1000D3B810B5002000F0DBF8012000F0CCF8BB
:101D2000BDE81040012000F0D3B810B5FFF7B2FFB6
:101D3000AE2000F0D9F8D52000F0D6F8802000F0D1
:101D4000D3F8A82000F0D0F83F2000F0CDF8D32041
:101D500000F0CAF8002000F0C7F8402000F0C4F8F6
:101D6000A12000F0C1F8C82000F0BEF8DA2000F091
:101D7000BBF8122000F0B8F8812000F0B5F8CF20B1
:101D800000F0B2F8D92000F0AFF8F12000F0ACF884
:101D9000DB2000F0A9F8302000F0A6F8A42000F025
:101DA000A3F8A62000F0A0F88D2000F09DF81420E4
:101DB00000F09AF8BDE81040AF2000F095B810B5DB
:101DC0000C4640F0B00000F08FF8102040EA1410EC
:101DD00000F08AF804F00F00BDE8104000F084B86D
:101DE0002DE9FC4F1F4615460C4606467F284AD86B
:101DF0003F2C48D8FFF71CFF781EC117002300EBCB
:101E000051700121DFF884B004F0070901EBE0070D
:101E100037E0002031E031187F2930D803EBD40AB5
:101E2000BAF1070F2FD80BEBCA1E03FB05F21EF801
:101E300001C00192DDF82C808044CDF8008012F8BA
:101E4000082002FA09F24CEA020C0AF101020EF82B
:101E500001C0072A0FD80EEB0108DDE900C198F890
:101E6000802011F80CC0C9F108012CFA01FC42EAEB
:101E70000C0288F88020401CC0B2A842CBD35B1C67
:101E8000DBB29F42C5DCBDE8FC8F00000C020020E5
:101E900070B5084D002400212046FFF790FF05EBA8
:101EA000C410802100F031F8641CE4B2082CF2D395
:101EB00070BD00000C02002008B1012200E00022E9
:101EC0004FF480710148FEF75ABC0000000C01403D
:101ED00008B1012200E000224FF400710148FEF732
:101EE0004EBC0000000C014010B50446FFF702FF95
:101EF0007820FFF7E2FE0020FFF7DFFE2046FFF725
:101F0000DCFEBDE81040FFF704BF70B50D46064685
:101F1000FFF7F0FE7820FFF7D0FE4020FFF7CDFE60
:101F2000002404E0305DFFF7C8FE641CE4B2AC425C
:101F3000F8D3BDE87040FFF7ECBE000010B50021FB
:101F40000848FFF78FF904210648FFF78BF90821AD
:101F50000448FFF787F9BDE810400C210148FFF75E
:101F600081B90000A800002010B500210848FFF743
:101F700079F904210648FFF775F908210448FFF7AD
:101F800071F9BDE810400C210148FFF76BB9000062
:101F9000F000002000210148FFF764B96000002034
:101FA0000149096848637047A80000200149096891
:101FB0004863704760000020014909684863704722
:101FC000F00000200149096888637047A8000020DC
:101FD0000149096888637047F000002001490968D9
:101FE000C8637047A800002001490968C8637047AA
:101FF000F00000200149096808647047A80000202B
:102000000149096808647047F0000020704700002B
:10201000174808B515494162164A8262C2620163D7
:10202000154941638163C16301641449416481645A
:1020300000210171818241708170C1700170417114
:102040008171C171017241728172C1720173FFF7B6
:10205000DBFD0B4800210090402380220846FFF75B
:10206000BFFEBDE80840FFF713BF000000000743B4
:1020700000000020000034420000B4420000C842CA
:10208000D433000870470000014800787047000012
:102090005C000020012202490248FFF7DDBA00007F
:1020A0005C000020C401002010B5FFF747FFFFF7D8
:1020B0005BFFBDE81040FFF76DBF000010B5084999
:1020C00000F0BEFE074900F0FDFF074900F04AFEA0
:1020D00000F078FFBDE8104080B2FFF761BF00005C
:1020E000000034430000FA440000FA4310B50849E8
:1020F00000F0A6FE074900F0E5FF074900F032FEB8
:1021000000F060FFBDE8104080B2FFF75BBF000049
:10211000000034430000FA440000FA4310B50849B7
:1021200000F08EFE074900F0CDFF074900F01AFECF
:1021300000F048FFBDE8104080B2FFF74FBF00003D
:10214000000034430000FA440000FA4310B5084987
:1021500000F076FE074900F0B5FF074900F002FEE7
:1021600000F030FFBDE8104080B2FFF743BF000031
:10217000000034430000FA440000FA4310B5084957
:1021800000F05EFE074900F09DFF074900F0EAFD00
:1021900000F018FFBDE8104080B2FFF70DBF00004F
:1021A000000034430000FA440000FA4310B5084927
:1021B00000F046FE074900F085FF074900F0D2FD18
:1021C00000F000FFBDE8104080B2FFF701BF000043
:1021D000000034430000FA440000FA4310B50849F7
:1021E00000F02EFE074900F06DFF074900F0BAFD30
:1021F00000F0E8FEBDE8104080B2FFF7F5BE000039
:10220000000034430000FA440000FA4310B50849C6
:1022100000F016FE074900F055FF074900F0A2FD47
:1022200000F0D0FEBDE8104080B2FFF7E9BE00002C
:10223000000034430000FA440000FA4310B5084996
:1022400000F0FEFD074900F03DFF074900F08AFD60
:1022500000F0B8FEBDE8104080B2FFF7A7BE000056
:10226000000034430000FA440000FA43FEF792BA3B
:1022700030B58FB028216846FDF7A6FF14210AA8C3
:10228000FDF7A2FF01210804CDE90010002402940B
:1022900002250491CDE907504FF4E01009906846FB
:1022A000FEF7ECFB08B172B6FEE70F20CDE90A0598
:1022B0004FF48060CDE90C4002210AA80E94FEF78D
:1022C00001FB002801D072B6FEE70FB030BD7047A9
:1022D000F0B50268194B1A4C1A4D4FF080479842DE
:1022E00005D0B84203D0A04201D0A84203D122F0C9
:1022F00070064A683243984205D0B84203D0A042E3
:1023000001D0A84203D122F44074CA6822434C6928
:1023100022F08002224302608A68C2620A688262F6
:10232000984201D109690163012141610169C9072D
:1023300003D0016921F001010161F0BD002C0140D1
:10234000000400400008004010B501F01F03012107
:10235000046A99408C430462016A9A401143016205
:1023600010BD10B5846842EA032224F47F440A4376
:102370002243826010BD826822F070020A4342F05C
:10238000070181607047000030B5036A026A22F0DD
:10239000010202624268846924F073050C682C43D0
:1023A00023F002058B682B430A4DA8420BD123F082
:1023B0000805CB6822F440722B434D6923F00403D7
:1023C00015438A692A434260846149684163036214
:1023D00030BD0000002C014030B5026A036A23F0D2
:1023E00010030362436884690D6824F4E64444EAF8
:1023F00005248D6822F0200242EA05120B4DA84206
:102400000ED1CD6822F0800242EA05124D6923F414
:10241000406343EA85038D6922F0400243EA850365
:102420004360846149688163026230BD002C0140D1
:1024300030B5036A026A22F4807202624268C4699B
:1024400023F4007324F073050C682C438D6843EA71
:1024500005230C4DA8420ED1CD6823F4006343EA56
:1024600005234D6922F4405242EA05128D6923F496
:10247000806342EA05124260C4614968C163036235
:1024800030BD0000002C014030B5046A026A22F41D
:10249000805202624268C3690D6823F4E64343EA4E
:1024A00005238D6824F4005444EA0534064DA842FF
:1024B00004D14D6922F4804242EA85124260C36130
:1024C00049680164046230BD002C014010B5036A04
:1024D000046A24F001040462846924F0F00444EAEC
:1024E000021423F00A020A438461026210BD10B58F
:1024F000036A046A24F010040462846923F0A003D0
:1025000024F4704444EA023243EA01118261016218
:1025100010BD10B5406A0021C185C184FEF7F1FEEF
:1025200010BD01680C3151E8002F22F4907241E88F
:102530000023002BF5D10168143151E8002F22F05F
:10254000010241E80023002BF5D1016B012909D1DB
:1025500001680C3151E8002F22F0100241E80023FD
:10256000002BF5D1202180F8421000210163704733
:1025700008B590F84210222901D0022008BD8268D7
:102580004FF480539A4201D1016921B1816A9A4284
:102590001BD04AB10AE00268816A5268C2F308029D
:1025A0000A80816A891C08E0026972B10268526877
:1025B00002F07F020A70816A491C8162C18D491E46
:1025C0000904090CC18503D01BE002685268F1E7D9
:1025D0000168CA6822F02002CA600168CA6822F451
:1025E0008072CA6001684A6922F001024A612021B2
:1025F00080F8421000214163026B012A03D0FFF7EB
:1026000039F8002008BD016301680C3151E8002F42
:1026100022F0100241E80023002BF5D101680A687E
:10262000D20602D50A6849680091818DFEF768FEDE
:10263000E7E7000070B5044600680169E26821F42C
:102640004051114301612169A06808436169084351
:102650002168CA6841F20C639A430243CA60206849
:102660004169A26921F44071114341611E4920680A
:10267000884202D1FEF7CCF901E0FEF7B9F900EB90
:10268000C00101EB0012606864218000B2FBF0F32E
:10269000B3FBF1F36FF018067343B2FBF0F5B2FB36
:1026A000F0F605EB8305322303EB0515B5FBF1F5D9
:1026B000B6FBF1F605F0F00505EB0615B2FBF0F6FA
:1026C000B2FBF0F0B0FBF1F06FF01802504306EBF4
:1026D000800003EB0010B0FBF1F0216800F00F0068
:1026E0002844886070BD0000003801408162828506
:1026F000C28500214164222180F84210016921B184
:102700000168CA6842F48072CA6001684A6942F08E
:1027100001024A610068C16841F02001C1600020E7
:10272000704700000148FEF7EDBD0000C401002025
:10273000FEE70907090E002804DB00F1E02080F81D
:102740000014704700F00F0000F1E02080F8141D25
:1027500070470000FEF726F8FFF78AFDFFF73AF80A
:10276000FFF722F8FFF732FAFFF7B8F8FFF71AF988
:10277000FFF77CF9FFF7DEF9FFF796FCFFF78AFC1D
:10278000FEF7FCFFFDF784FDFFF7CFFAFEF7F8FF39
:10279000FEF7FEFFFFF73CFCDFF8F893DFF8F8A345
:1027A0004FF07C5B0025FD4C606AFFF787FCA06A58
:1027B000FFF79CFCE06AFFF7B1FC206BFFF7C6FC5B
:1027C000606BFFF7DBFCA06BFFF7F0FCE06BFFF743
:1027D00005FD206CFFF71AFD606CFFF72FFD99F8DF
:1027E00000004E4601281BD1FFF74EFCE074012883
:1027F00002D0062809D012E02571E5716572E572F4
:1028000001206071A071E58207E025710120E0716F
:102810006572E5726571207225836570A5703570EB
:10282000616CA06C00F04CFD20F0004680465F46D5
:10283000564502DB4FF0824710E04FF080418E4258
:102840000CDD304600F03CFDD54900F03BFCD5499D
:1028500000F0F6FA394600F085FA07463946404658
:1028600000F0FCFC0AD23946606C00F07BFA606430
:10287000616CCD48814217DD606415E087F000404F
:10288000414600F0EBFC0AD23946606C00F018FDBE
:102890006064606C10F1FF4F06D3656404E0C348C8
:1028A000864201DDA06CE7E72079002838D0A08AB5
:1028B000401CA0822079012807D0022831D00328AB
:1028C00046D004285CD0257129E0606B4FF40006E7
:1028D000B04204DBF101606B00F0F2FC6063E06B7E
:1028E000B04205DB4FF08041E06B00F0E9FCE063B3
:1028F000A06BAD4EB04204DA3103A06B00F032FAA7
:10290000A063206CB04205DA4FF08041206C00F0EB
:1029100029FA2064A08A0C284BD3022047E0A58224
:1029200047E0606BA24EB04204DA7102606B00F0C7
:1029300019FA6063E06BB04205DA4FF08041E06B5A
:1029400000F010FAE063A08A0C2832D303202EE0B6
:10295000606B4FF40006B04204DBF101606B00F0E5
:10296000AFFC6063E06BB04205DB4FF08041E06B91
:1029700000F0A6FCE063A08A0C281AD3042016E01D
:10298000A06B8C4EB04205DD4FF08041A06B00F093
:1029900097FCA063206CB04205DD4FF08041206CB5
:1029A00000F08EFC2064A08A0C2802D30120207144
:1029B000B5E7607928B3E08A401CE082E08A082805
:1029C00008D3E582A079042801D9012001E0A0798B
:1029D000401CA071A079012806D0022812D003283B
:1029E0001CD0042834D126E073496162734A6263C3
:1029F0007348A062A2637348E0627348E063216396
:102A0000226425E06C4961626C4860636D4AA26291
:102A10006E4AA2636A4AE262E06317E06648606257
:102A2000664860636649A162A063E162E06368484A
:102A3000206366480BE066486062634860636049F3
:102A4000A1625E48A063E162E0635B4921632064A8
:102A5000E07988B3208B401C2083208B082808D382
:102A60002583207A042801D9012001E0207A401C26
:102A70002072207A012806D0022810D003281CD00A
:102A8000042834D126E0524860624F4860634C49C4
:102A9000A1624A48A063E162E063474925E04648F5
:102AA0006062464961634648A062A163E062E163F7
:102AB00047482063454819E019E03F4A62623F48B1
:102AC00060634049A1624149A1633D49E162E0631D
:102AD00022630BE03849616238486063384AA26279
:102AE000A063384AE262384AE26321632064607A74
:102AF000A8B3608B401C6083608B0C2808D365836F
:102B0000A07A401CA072A07A042801D90120A072EA
:102B1000A07A012806D002280ED0032812D004285B
:102B20001DD15CE02B4860622B49A162E162206309
:102B300061631D49A16303E025486062214951E0BA
:102B4000E5630BE0224961621E48A062E0622163F6
:102B500065632048A0632048E06313482064E07A5E
:102B6000E0B3A08B401CA083A08B0C2808D3A583C6
:102B7000207B401C2073207B042801D90120207376
:102B8000207B012835D002283ED0032843D00428DA
:102B900059D14DE05D0000200000A0410000002060
:102BA0000000F0400000904100003443CDCCCC3D0B
:102BB0000000204200000C430000D2420000B4425A
:102BC0000000964200007041000070420000F04298
:102BD00000002543000016430000F04133E059484F
:102BE00060625949A162E162206365635748A0634E
:102BF000A6E7574860625749A162E16220636563B6
:102C0000A063E16351481DE0534961625348A062EB
:102C1000E062216312E0504860625049A162E162C3
:102C200020634C4860634948A063E563484809E075
:102C3000444860624449A162E1622063656343489D
:102C4000A063E5632064607B082803D3FFF720F9C5
:102C5000657301E0401C6073A07BB8B1E08B401C41
:102C6000E083E08B0C2811D3E583A07B012817D0EB
:102C70003B4E012211033046FDF781FD00224FF447
:102C800000413046FDF77BFD0120A0732021344830
:102C9000FDF770FD012811D0A07C01281BD03EE07B
:102CA0002F4E00224FF480513046FDF768FD01227F
:102CB000D1033046FDF763FD0220E6E7E07B38B93B
:102CC0006571E5716572E5720120E07325746574C4
:102CD0000120A07424E01B4961621B48A062E062ED
:102CE000216365631948A063E5632064606AFFF7A8
:102CF000E5F9A06AFFF7FAF9E06AFFF70FFA206B2F
:102D0000FFF724FA606BFFF739FAA06BFFF74EFA72
:102D1000E06BFFF763FA206CFFF778FAA574E573B0
:102D2000E07B08B1FEF7BAFC208C30B1401E0004F5
:102D3000000C208401D1FDF7C1FA1920FDF718FC21
:102D400031E5000000000743000034420000344336
:102D5000000016430000F0410000254300007041D0
:102D60000008014090EA010F48BF81F0004100F1E6
:102D7000AE82421A3CBF801A89184FEAD0524FF0F7
:102D80007F4C1CEA410FA2EBD15318BF9CEA026FA3
:102D900000F03B804FF0004C4CEA00204CEA01214F
:102DA00021FA03FC10EB0C0C1ED202F1FF325FEA99
:102DB0001C2040EBC25038BF70471CF07F0F4FEA19
:102DC000400C18BFBCF17F4F38BF7047C3F12003E0
:102DD000994008BF20F00100BCF17F4F38BF704719
:102DE000A0F1C04000F035BA4FEA3C00000A40EBC9
:102DF000C25028BF1CF0FF0F4FEA400CE6D018BFAE
:102E0000BCF17F4F38BF7047EAE79CEA026F05D0FC
:102E100010EA5C0F08BF00F00040704710B500F0EA
:102E2000D2F900BF64FBBE3E401058BFC0F1404025
:102E3000491058BFC1F140418142EFF30080704713
:102E40004FF47F0C1CEAD0121EBF1CEAD11392EA89
:102E50000C0F93EA0C0F00F0858090EA010F48BF39
:102E600042F4807240F4000C41F400002CF07F41E9
:102E700020F07F4000B58142A2EB03020FF2081C54
:102E8000ACEB504EC0F100009EF800E04FEA4E0E51
:102E900000FB0EFC38BF49004FEA2C1C02F5FA0279
:102EA0000CFB0EF34FEACE1E4FEA112C4FEAC12164
:102EB0000EEB635E42EB22420EFB0CFC4FEA1C530E
:102EC00000FB03114FEA112C4FEA01310EFB0CFC01
:102ED0004FEADC4C00FB0C11C14228BF09184CEB37
:102EE00003335DF804EB10EB410143EBC250B2F544
:102EF0007C0F38BF704729D512F0F00F1CBF00F1CE
:102F0000C04000F00040704700818283848586873E
:102F100088898B8C8D8E8F919293959697999A9C98
:102F20009D9FA0A2A3A5A7A8AAACAEB0B2B3B5B707
:102F3000B9BCBEC0C2C5C7C9CCCED1D4D7D9DCDFDD
:102F4000E2E6E9ECF0F3F7FAFE0000004FEA400C8D
:102F50000CF1807CBCF17E4F28BF7047B0F1C040BF
:102F600000F077B990EA010F0CEAD11348BF42F4A0
:102F70008072624538BF634507D213F47F0F16D0C5
:102F800080EA010000F00040704710B500F01BF926
:102F9000097EFC3E00F005B880EA010000F0004028
:102FA000704780EA010000F0004000F052B912F4CE
:102FB0007F0F04BF0248704780EA010000F049B962
:102FC0000000C07FC10DD1F19E0206DB4FEA002355
:102FD00043F0004323FA02F07047004207D54FEA5E
:102FE0004001B1F1FE4F02D24FF00000704710B522
:102FF00000F0E9F849922480002070476FEA200031
:103000007047000010F0004148BF4042B0FA80F322
:1030100010FA03F2C3F19D030BD051EAC35101EB47
:103020001220530638BF704700F1010008BF20F09E
:1030300001007047B0FA80F310FA03F2C3F19D0368
:103040000AD0D90501EB1220530638BF704700F1B2
:10305000010008BF20F001007047000050EA010C99
:1030600000F113801CF5000F58BFBCF5000F01D410
:103070008842704707D710F5000F58BF11F5000FB1
:1030800015D488427047894270471CF5000F04D55B
:10309000BCF5000FF7D5814270474FF0807C1CEBE8
:1030A000400F38BF1CEB410F01D28142704710B571
:1030B00000F089F8922449004FF000504FF0805101
:1030C000FFF7B2BE4FF47F0C1CEAD0121EBF1CEA01
:1030D000D11392EA0C0F93EA0C0F00F0478090EAAC
:1030E000010F48BF42F480724FF0004C4CEA0020C0
:1030F0004CEA012102EB0302A0FB0113A2F500023E
:10310000002918BF43F001035B0028BF4FEA3303D7
:1031100042EB22425FEA132C4CEBC2502EBFBCEBB9
:10312000436FB2F57C0F70474FEA036CBCF1004F60
:1031300008BF20F00100B2F57C0F38BF70470BD5F7
:1031400082F0FF0212F5803FC8BF704700F1C04017
:10315000D8BF00F00040704700F5000C5FEA4C0C4F
:1031600048BF7047B0F1C04000F073B890EA010F5B
:103170000CEAD11348BF42F48072624538BF634500
:1031800004D280EA010000F00040704710B500F062
:103190001AF800BF8900013E00F007B800F009B836
:1031A0005FEA410C5FEA1C6C08D080EA010000F085
:1031B00050B85FEA400C5FEA1C6CF6D14FF000405B
:1031C000A0F5800070470EF1020E2EF0030E5EF89F
:1031D000044B244204D44FEA4102B2F17F4F11D88C
:1031E0004FEA4003B3F17F4F0CD80ED14FEAD07CA9
:1031F000B2F17F4F0CEB4C0C0CF1020C08BF4CEB06
:10320000D17C04E04FF0080C01E04FEAD17C0CEBDC
:103210004C0324FA03F404F00704B4F1040C06D2BE
:103220000EEB840CBDE810404CF0010C6047DFE869
:103230000CF0070802024FF00040A0F5800010BD1E
:103240000846420018BFD2F1807288BF00F00040EB
:1032500010BDFF2141EAD050C005704751EA000C73
:1032600000F113801CF5000F58BFBCF5000F01D40E
:103270008142704707D711F5000F58BF10F5000FB6
:1032800015D481427047894270471CF5000F04D560
:10329000BCF5000FF7D5884270474FF0807C1CEBDF
:1032A000410F38BF1CEB400F01D28842704780EAC3
:1032B000010081EA000180EA0100FFF7F8BE00008A
:1032C00090EA010F48BF81F000413FF552AD421A2C
:1032D00004D882F00042A0EB020011444FEAD05221
:1032E0004FF07F4C1CEA410FA2EBD15318BF9CEA70
:1032F000026F4AD04FF0004C4CEA00204CEA01210A
:1033000021FA03FCB0EB0C0C0FD412F0FE0F36D0F8
:103310005FEA4C001DD5001240EBC25038BF704729
:103320001CF03F0F18BF70470BE0A2F101025FEAEB
:103330001C2040EBC25038BF70471CF07F0F18BFF5
:103340007047C3F12003994014BF401E20F00100D4
:10335000704780084FEA122308BF7047B0FA80FC1C
:10336000A2EB0C02CCF1280C60FA0CF093EA122FBD
:1033700004BF00EBC25070474FEAC3707047130A96
:103380005FEADC1008BF7047F6E79CEA026F04D0E2
:1033900010EA5C0F08BF0020704710B5FFF713FF5D
:1033A00040DFF63E81F00040704701020203040551
:1033B000060708090A0B0C0D0E0F10100000000084
:1033C00000000000010203040607080900000000D5
:1033D00001020304000000000000000000000000E3
:1033E00000000000000000000000000000000000DD
:1033F00000000000000000C0F070F0C000000000FD
:1034000000000000000000000000000000000000BC
:1034100000000000000000000000000000000000AC
:1034200000000000000000000000000000C0F8F8EC
:10343000F08000000000000000000000000000001C
:10344000000000000000000000000000000000007C
:10345000000000000000000000000000000000006C
:10346000000000000000000000000000000000005C
:10347000000080C0F07C1F070000010F3FFCF0C07F
:10348000000000000000000000000000000000003C
:10349000000000000000000000000000000000002C
:1034A00000000000000000000080E0F87E0F030034
:1034B000073FFCE0000000000000000000000000EA
:1034C00000000000000000000000000000000000FC
:1034D00000000000000000000000000000000000EC
:1034E00000000000000000000000000080C0E07844
:1034F0003C1E07030000000000000000000103075D
:103500001F7CF0E0800000000000000000000000D0
:1035100000000000000000000000000000000000AB
:10352000000000000080E0F87E1F0703000000009C
:103530000000013F3FF8E000000000000000000034
:10354000000000000000000000000000000000007B
:10355000000000000000000000000000000000006B
:10356000000000000000000000000006070300004B
:10357000000000000000000000000000000000004B
:10358000000001030707060400000000000000001F
:10359000000000000000000000000000000000002B
:1035A000000000101C1F07000000000000000000C9
:1035B000000000000001071F3C3000000000000078
:1035C00000000000000000000000000000000000FB
:1035D00000000000000000000000000000000000EB
:1035E00000000000000000000000000000000000DB
:1035F00000000000000000000000000000000000CB
:1036000000000000000000000000000000000000BA
:1036100000000000000000000000000000000000AA
:10362000000000000000000000000000000000009A
:10363000000000000000000000000000000000008A
:10364000000000000000000000000000000000007A
:10365000000000000000000000000000000000006A
:10366000000000000000000000000000000000005A
:10367000000000000000000000000000000000004A
:103680000000000000C0C0C080000000000000007A
:103690000000000000000000000000000080C0C02A
:1036A000000000000000000000000000000000001A
:1036B000000000000000000000000000000000000A
:1036C00000000000000000000000000000000000FA
:1036D00000000000000000000000000000000000EA
:1036E00000000000000000000000000000000000DA
:1036F00000000000000000000000000000000000CA
:103700000000000000000103071F3C70F0C0000033
:1037100000000000000000C0E0F0783C0F0703014B
:103720000000000000000000000000000000000099
:103730000000000000000000000000000000000089
:103740000000000000000000000000000000000079
:103750000000000000000000000000000000000069
:103760000000000000000000000000000000000059
:103770000000000000000000000000000000000049
:1037800000000000000000000000000001030F1E08
:10379000387030381E0E07030100000000000000E2
:1037A0000000000000000000000000000000000019
:1037B0000000000000000000000000000000000009
:1037C00000000000000000000000000000000000F9
:1037D00000000000000000000000000000000000E9
:1037E00000000000000000000000008080000000D9
:1037F00000000000000000000000000000000000C9
:1038000000000000000000000080C0000000000078
:1038100000000000000000000000000000000000A8
:10382000000000C0000000000000000000000000D8
:10383000000000000000000000000080C000000048
:103840000000000000000000000000000000000078
:103850000000000000000000000000000000000068
:103860000000000000000000000000000F1E7CF8B7
:10387000E0C00000000000000000000000000000A8
:103880000000000000C0F0FC3F0703000000000043
:103890000000000000000000000000000000000028
:1038A0000000001F3F7EF8E08000000000000000E4
:1038B0000000000000000000E0F83F0F03000000DF
:1038C00000000000000000000000000000000000F8
:1038D00000000000000000000000000000000000E8
:1038E00000000000000000000000000000000001D7
:1038F000030F1F3EFCF0E0C080000000000000004D
:103900000080F0FC3F070301000000000000000001
:1039100000000000000000000000000000000000A7
:10392000000000000000031F3FFEF0C00000000088
:103930000000000080E0FC3F0F01000000000000DC
:103940000000000000000000000000000000000077
:103950000000000000000000000000000000000067
:103960000000000000000000000000000000000057
:103970000000000000000103070F1E3C3C78707837
:103980007C1F0F030000000000000000000000008A
:103990000000000000000000000000000000000027
:1039A00000000000000000000000030F3FFCF0E0FA
:1039B00080E0F87E1F07000000000000000000000B
:1039C00000000000000000000000000000000000F7
:1039D00000000000000000000000000000000000E7
:1039E00000000000000000000000000000000000D7
:1039F000000000000000000000F888888C840CF8AB
:103A00003000000000000000000000000000000086
:103A100080E0F0F87CE0E0800000000000000000A2
:103A200000000000000000000000000080C04363B0
:103A300063C38100000000000000000000000000DF
:103A40000000000000000000000000000000000076
:103A50000000000000000000000000000000000066
:103A60000000000000000000000000000000000056
:103A700000000000000000000000000000810101C3
:103A80000000000000000000000080E0F0F83C1E94
:103A90000F0703010003071F3FFCF8E0C080000090
:103AA000000000000000000000000000010302020E
:103AB00006040701000000000000000000000000F4
:103AC00000000000000000000000000000000000F6
:103AD00000000000000000000000000000000000E6
:103AE00000000000000000000000000000000000D6
:103AF00000000000000000000E1F1919191F060029
:103B000000000000000060F87E3F1F0F030000006F
:103B100000000000000000000000010103070F1E6C
:103B20001E7E7CF000000000000000000060F8C86D
:103B300088C8D8F00000000000000000000000006D
:103B40000000000000000000000000000000000075
:103B50000000000000000000000000000000000065
:103B60000000000000000000000000000000000055
:103B7000000000000000000000001C1E0E000000FD
:103B80000000000000000000000000000000000035
:103B90000000000000000000000000000000000025
:103BA00000000000000000000000000000000119FB
:103BB0003D3900000000000000000000000000008F
:103BC00000000000000000000000000000000000F5
:103BD00000000000F43B000800000020600000002E
:103BE00028010008543C000860000020100C000070
:103BF0004401000800000000000000000000000078
:103C000000000000000000000000000000000000B4
:103C100000000000000000000000B4420000B442B8
:103C20000000B4420000B442000000000000344331
:103C300000000000000034430000C8420000C842F9
:103C400001000000100000000000000000127A00D7
:043C50000000000070
:04000005080000ED02
:00000001FF
